:020000040800F2
:100000005004002045010008AD130008DF1200086D
:10001000A9130008D5010008851800080000000099
:10002000000000000000000000000000151400089F
:10003000D901000800000000E913000817140008A7
:100040005F0100085F0100085F0100085F01000810
:100050005F0100085F0100085F0100085F01000800
:100060005F0100085F0100085F0100085F010008F0
:100070005F0100085F0100085F0100085F010008E0
:100080005F0100085F0100085F0100085F010008D0
:100090005F0100085F0100085F0100085F010008C0
:1000A0005F0100085F0100085F0100085F010008B0
:1000B0005F0100085F0100085F0100085F010008A0
:1000C0005F0100085F0100085F0100085F01000890
:1000D0005F010008751800085F0100085F01000853
:1000E0005F0100085F0100085F0100085F01000870
:1000F0005F0100085F0100085F0100085F01000860
:100100005F0100085F0100085F0100085F0100084F
:100110005F0100085F0100085F0100085F0100083F
:100120005F0100085F0100085F0100085F0100082F
:10013000DFF80CD000F03CF800480047A918000890
:10014000500400200648804706480047FEE7FEE7C7
:10015000FEE7FEE7FEE7FEE7FEE7FEE7FEE7FEE777
:10016000851400083101000840EA01039B0703D011
:1001700009E008C9121F08C0042AFAD203E011F8E6
:10018000013B00F8013B521EF9D27047D2B201E0A8
:1001900000F8012B491EFBD270470022F6E710B58C
:1001A00013460A4604461946FFF7F0FF204610BDE5
:1001B000064C074D06E0E06840F0010394E80700B4
:1001C00098471034AC42F6D3FFF7B6FF1C1900086D
:1001D0003C19000800BFFEE77047704770B5044641
:1001E000002594F82100022803D00420A0630125F3
:1001F000C1E02068006820F00E00216808602068D7
:10020000006820F00100216808605C49206888428D
:1002100052D95A4978392068884201D1012047E0F3
:10022000564964392068884201D1102040E0534982
:1002300050392068884201D1801539E04F493C3956
:100240002068884201D1801432E04C492839206866
:10025000884202D14FF480302AE04849143920689E
:10026000884202D14FF4801022E04449206888423D
:1002700001D140041CE042492068884201D101209C
:1002800016E03F4914312068884201D110200FE068
:100290003B4928312068884201D1801508E038495F
:1002A0003C312068884201D1801401E04FF4803055
:1002B0003349091F086051E0304978392068884285
:1002C00001D1012047E02D4964392068884201D1DD
:1002D000102040E0294950392068884201D180151A
:1002E00039E026493C392068884201D1801432E047
:1002F000224928392068884202D14FF480302AE010
:100300001E4914392068884202D14FF4801022E03F
:100310001A492068884201D140041CE0184920682D
:10032000884201D1012016E0154914312068884225
:1003300001D110200FE0124928312068884201D1F4
:10034000801508E00E493C312068884201D18014B4
:1003500001E04FF48030094980394860012084F879
:10036000210000BF002084F8200000BF606B10B1A6
:100370002046616B8847284670BD0000800002401F
:10038000080402402DE9F847024600240020002519
:100390008446002700237BE14FF0010808FA03F4AC
:1003A000D1F8008008EA0400A0427DD1DFF8ECA279
:1003B000D1F80480A8EB0A09D0453AD014DCB8F192
:1003C000030F50D009DCB8F1000F31D0B8F1010FA4
:1003D0001CD0B8F1020F49D120E0B8F1110F18D0AC
:1003E000B8F1120F42D11EE0B9F5881F25D006DC06
:1003F000B9F5803F20D0B9F5801F37D11AE0B9F5A3
:10040000001F18D0B9F5041F30D117E0D1F80CC087
:100410002DE0D1F80C8008F1040C28E0D1F80C8014
:1004200008F1080C23E0D1F80C8008F10C0C1EE058
:1004300000BF00BF00BF00BF00BF00BFD1F80880F1
:10044000B8F1000F02D14FF0040C0BE0D1F8088096
:10045000B8F1010F03D14FF0080C146102E04FF026
:10046000080C546103E04FF0000C00E000BF00BF37
:10047000FF2801D8904601E002F104084646FF2813
:1004800002D84FEA830803E0A3F108084FEA88087E
:100490004746D6F800804FF00F0909FA07F928EA15
:1004A00009080CFA07F900E07AE048EA0908C6F8FA
:1004B0000080D1F8048008F08058B8F1805F6FD1D7
:1004C00000BFDFF8DC81D8F8188048F00108DFF8B9
:1004D000D091C9F81880C846D8F8188008F00108EB
:1004E000CDF8008000BF00BF4FEAB9384FEA93094A
:1004F00058F829504FEA83784FEA18794FF00F08DF
:1005000008FA09F825EA0805DFF89881424502D182
:100510004FF0000824E0DFF89081424502D14FF00F
:1005200001081DE0DFF88481424502D14FF0020846
:1005300016E0DFF87C81424502D14FF003080FE05E
:10054000DFF87081424502D14FF0040808E0DFF87F
:100550006881424502D14FF0050801E04FF00608DE
:100560004FEA83794FEA197908FA09F848EA05054C
:10057000DFF848814FEA930948F82950D1F8048000
:1005800008F48038B8F5803F0BD1DFF83481D8F813
:10059000008048EA0008DFF82891C9F800800AE0E6
:1005A00075E0DFF81C81D8F8008028EA0008DFF841
:1005B0001091C9F80080D1F8048008F40038B8F52B
:1005C000003F0ED1DFF8F88008F10408D8F8008069
:1005D00048EA0008DFF8E89009F10409C9F800804A
:1005E0000DE0DFF8DC8008F10408D8F8008028EA84
:1005F0000008DFF8CC9009F10409C9F80080D1F8AF
:10060000048008F48018B8F5801F0ED1DFF8B080A0
:1006100008F10808D8F8008048EA0008DFF8A09040
:1006200009F10809C9F800800DE0DFF8948008F1AD
:100630000808D8F8008028EA0008DFF8849009F15B
:100640000809C9F80080D1F8048008F40018B8F54A
:10065000001F0ED1DFF8688008F10C08D8F8008080
:1006600048EA0008DFF8589009F10C09C9F8008041
:100670000DE0DFF84C8008F10C08D8F8008028EA7B
:100680000008DFF83C9009F10C09C9F800805B1CF8
:10069000102BFFF481AEBDE8F887000000001110B8
:1006A0000010024000080140000C01400010014011
:1006B0000014014000180140001C014008000140E6
:1006C00000040140C2684A40C26070470AB101613B
:1006D00001E00B04036170470148006870470000A7
:1006E00000000020034800680349097808440149D4
:1006F00008607047000000200800002010B508487E
:10070000006840F0100006490860032000F0A6F8D9
:10071000002000F007F800F02BF8002010BD0000CA
:100720000020024070B504460E4800784FF47A71FC
:10073000B1FBF0F00C490968B1FBF0F5284600F078
:1007400019FC08B1012070BD102C07D200222146EF
:10075000501E00F044F80548046001E00120F2E773
:100760000020F0E7080000200C000020040000201A
:1007700008B500BF1148806940F001000F49886149
:100780000846806900F00100009000BF00BF00BF74
:100790000846C06940F08050C8610846C06900F052
:1007A0008050009000BF00BF00BF0549486820F09E
:1007B000E06040F00070486000BF08BD00100240DB
:1007C0000000014000BF00F01F02012191404209DA
:1007D000920002F1E022C2F8001100BF70472DE93B
:1007E000F05F80460D461646002700F0E1FD074603
:1007F00039462A46334601F00700C0F1070ABAF12C
:10080000040F02D94FF0040A01E0C0F1070AD146F3
:1008100000F1040ABAF1070F02D24FF0000A01E01A
:10082000A0F1030AD4464FF0010A0AFA09FAAAF124
:10083000010A0AEA020A0AFA0CFA4FF0010B0BFA53
:100840000CFBABF1010B0BEA030B4AEA0B0421464C
:10085000404600F0B5FDBDE8F09F000000BF00F08D
:100860000702064B19684FF6FF031940044B0B4370
:1008700043EA0221014B196000BF70470CED00E014
:100880000000FA0570B504460D4600266D48006864
:1008900000F00700A8420ED26A48006820F0070066
:1008A0002843684908600846006800F00700A8422D
:1008B00001D0012070BD207800F0020002281DD177
:1008C000207800F00400042805D15F48406840F417
:1008D000E0605D494860207800F00800082805D1F4
:1008E0005948406840F4605057494860564840684D
:1008F00020F0F000A168084353494860207800F0D8
:10090000010000285DD06068012806D14E480068CB
:1009100000F4003090B90120CCE76068022806D1CD
:100920004948006800F0007040B90120C2E746481D
:10093000006800F0020008B90120BBE742484068A7
:1009400020F00300616808433F494860FFF7C4FE98
:1009500006466068012810D108E0FFF7BDFE801B45
:1009600041F28831884201D90320A3E73648406824
:1009700000F00C000428F0D123E06068022810D1B8
:1009800008E0FFF7A9FE801B41F28831884201D9B7
:1009900003208FE72C48406800F00C000828F0D1B5
:1009A0000FE008E0FFF798FE801B41F28831884293
:1009B00001D903207EE72448406800F00C0000289D
:1009C000F0D12048006800F00700A8420ED91D4869
:1009D000006820F0070028431A49086008460068AC
:1009E00000F00700A84201D0012063E7207800F062
:1009F0000400042807D11448406820F4E060E1684E
:100A0000084311494860207800F00800082808D100
:100A10000D48406820F46050216940EAC1000A494D
:100A2000486000F03DF808494968C1F30311074ADE
:100A3000515CC840064908600020FFF773FE0020A3
:100A400038E70000002002400010024004190008AE
:100A50000C00002001480068704700000C000020D6
:100A600000B5FFF7F7FF04494968C1F30221034AC3
:100A7000515CC84000BD000000100240141900087D
:100A800000B5FFF7E7FF04494968C1F3C221034AF3
:100A9000515CC84000BD000000100240141900085D
:100AA000F0B585B00FF26C0C9CE8E01001A8A0E84E
:100AB000E0101CA52D6800950021002200230024D1
:100AC0000020194D696801F00C05F5B1042D02D024
:100AD000082D19D101E0154819E001ADC1F3834695
:100AE000AC5D01F4803555B10F4D6D68C5F34045DF
:100AF0001DF805200D4D6543B5FBF2F302E00C4DEA
:100B000004FB05F3184602E000BF084800BF00BF21
:100B100005B0F0BD02030405060708090A0B0C0D19
:100B20000E0F1010010200000010024000127A00A7
:100B300000093D00F8B504460025207800F00100CA
:100B4000002878D0F848406800F00C0004280CD049
:100B5000F548406800F00C00082811D1F2484068C0
:100B600000F48030B0F5803F0AD1EF48006800F40F
:100B7000003000285FD0606800285CD10120F8BDFB
:100B800000BF6068B0F5803F06D1E748006840F4D8
:100B90008030E549086028E0606858B9E24800689C
:100BA00020F48030E04908600846006820F4802086
:100BB00008601AE06068B0F5A02F0BD1DA48006831
:100BC00040F48020D84908600846006840F480302E
:100BD00008600AE0D448006820F48030D2490860F8
:100BE0000846006820F48020086000BF606888B173
:100BF000FFF772FD054606E0FFF76EFD401B642817
:100C000001D90320BBE7C848006800F40030002881
:100C1000F2D010E0FFF760FD054606E0FFF75CFD4F
:100C2000401B642801D90320A9E7BF48006800F4ED
:100C300000300028F2D1207800F00200022857D1BD
:100C4000B948406800F00C0050B1B748406800F067
:100C50000C00082818D1B448406800F4803098B9D6
:100C6000B148006800F0020020B12069012801D0DD
:100C7000012084E7AC48006820F0F800616940EA90
:100C8000C100A949086033E02069E8B10120A74903
:100C90000860FFF721FD054606E0FFF71DFD401B3C
:100CA000022801D903206AE79F48006800F002008B
:100CB0000028F2D09C48006820F0F800616940EA02
:100CC000C1009949086013E0002098490860FFF7C7
:100CD00003FD054606E0FFF7FFFC401B022801D993
:100CE00003204CE79048006800F002000028F2D191
:100CF000207800F0080008282DD1A069B8B10120A3
:100D00008B490860FFF7E8FC054606E0FFF7E4FCC6
:100D1000401B022801D9032031E78348406A00F0D4
:100D200002000028F2D0012000F060FB13E0002058
:100D30007F490860FFF7D0FC054606E0FFF7CCFCD2
:100D4000401B022801D9032019E77748406A00F0C8
:100D500002000028F2D1207800F00400042873D1AA
:100D600000267148C06900F0805070B900BF6E481D
:100D7000C06940F080506C49C8610846C06900F005
:100D80008050009000BF00BF01266A48006800F450
:100D90008070B0B96748006840F4807065490860A9
:100DA000FFF79AFC054606E0FFF796FC401B642817
:100DB00001D90320E3E65F48006800F48070002852
:100DC000F2D000BFE068012806D15748006A40F021
:100DD00001005549086227E0E06858B95248006AA6
:100DE00020F00100504908620846006A20F0040023
:100DF000086219E0E06805280BD14B48006A40F012
:100E00000400494908620846006A40F0010008628F
:100E10000AE04548006A20F001004349086208469C
:100E2000006A20F00400086200BFE068A0B1FFF78C
:100E300053FC054609E0FFF74FFC401B41F28831A7
:100E4000884202D903209AE622E03748006A00F07F
:100E500002000028EFD012E0FFF73EFC054608E054
:100E6000FFF73AFC401B41F28831884201D9032048
:100E700085E62D48006A00F002000028F0D1012E1E
:100E800005D12948C06920F080502749C86100BFBA
:100E9000E069C8B32448406800F00C00082860D01E
:100EA000E069022848D1002020490866FFF714FCB9
:100EB000054606E0FFF710FC401B022801D903207D
:100EC0005DE61948006800F000700028F2D1206A41
:100ED000B0F5803F07D11448406820F40030A16885
:100EE000084311494860D4E9080108430E4949689C
:100EF00021F4741108430C49486001200B4908662D
:100F0000FFF7EAFB054607E02DE0FFF7E5FB401B96
:100F1000022801D9032032E60348006800F000707F
:100F20000028F2D01FE00000001002400000424202
:100F3000800442420070004000200C490866FFF720
:100F4000CBFB054606E0FFF7C7FB401B022801D993
:100F5000032014E60648006800F000700028F2D173
:100F600001E001200BE6002009E6000000004242FB
:100F70000010024070B504462546681EB0F1807F1F
:100F800001D301200FE0681E4FF0E02148610F21DE
:100F90004FF0FF3000F014FA00204FF0E02188619C
:100FA00007200861002070BD704700002DE9F04760
:100FB0000446206805682068C668206847694FF0C5
:100FC0000008C14605F00F08B8F1000F0AD105F07E
:100FD000200038B106F0200020B1204600F0A8FA29
:100FE000BDE8F087B8F1000F6DD007F0010018B927
:100FF00006F49070002866D005F0010030B106F4C8
:10100000807018B1E06B40F00100E06305F004006F
:1010100030B107F0010018B1E06B40F00200E0636E
:1010200005F0020030B107F0010018B1E06B40F0AC
:101030000400E06305F0080030B107F0010018B1CA
:10104000E06B40F00800E063E06B68B305F020005F
:1010500028B106F0200010B1204600F069FA20689F
:101060004069C0F38019E06B00F0080010B9B9F1D5
:10107000000F22D0204600F03BFA2068406900F0C3
:101080004000B0B12068406920F04000216848610C
:10109000606B50B11748616B4863606BFFF79EF857
:1010A00010B1606B416B88470CE02046FFF77CFF76
:1010B00008E02046FFF778FF04E02046FFF774FFC2
:1010C0000020E0638CE705F0800030B106F080007E
:1010D00018B1204600F064FB82E705F0400030B113
:1010E00006F0400018B1204600F012FA78E700BF81
:1010F00076E70000DD14000810B504460CB90120A5
:1011000010BDA06900B100E000BF94F8390028B913
:10111000002084F83800204600F028F8242084F8C5
:1011200039002068C06820F400502168C86020465B
:1011300000F052FA2068006920F4904021680861AC
:101140002068406920F02A00216848612068C06852
:1011500040F400502168C8600020E063202084F83B
:10116000390084F83A000020CAE7000010B586B0C4
:101170000446002002900390049005901E492068C8
:10118000884236D100BF1D48806940F480401B4929
:1011900088610846806900F48040019000BF00BF6C
:1011A00000BF0846806940F00400886108468069F5
:1011B00000F00400019000BF00BF4815029002201B
:1011C00003900320059002A90D48FFF7DBF84FF4C8
:1011D0008060029000200390049002A90848FFF765
:1011E000D1F8002202212520FFF7F9FA2520FFF788
:1011F000E9FA06B010BD00000038014000100240BE
:101200000008014070472DE9F84304460D46164694
:101210001F464FF0000994F8390020285CD105B131
:1012200016B90120BDE8F88300BF94F83800012802
:1012300001D10220F6E7012084F8380000BF002029
:10124000E063212084F83900FFF746FA8146A6843E
:10125000E6842BE0E08C401EE084A068B0F5805F5F
:1012600016D14B46002280212046009700F0CCFA90
:1012700008B10320D6E7A846B8F80000C0F308007C
:1012800021684860206908B9AD1C0FE06D1C0DE0B5
:101290004B46002280212046009700F0B5FA08B1A5
:1012A0000320BFE715F8010B21684860E08C002897
:1012B000D0D14B46002240212046009700F0A4FAEE
:1012C00008B10320AEE7202084F8390000BF0020D9
:1012D00084F8380000BFA5E70220A3E7704700BFED
:1012E000FEE7000000B585B0002001900290039059
:1012F000049000BF1C48806940F010001A498861C2
:101300000846806900F01000009000BF00BF00BFD9
:101310000846806940F0200088610846806900F036
:101320002000009000BF00BF00BF0846806940F069
:10133000040088610846806900F00400009000BF46
:1013400000BF012289150948FFF7C0F94FF48070EA
:101350000190012002900390049001A90348FFF737
:1013600011F805B000BD0000001002400008014067
:1013700010B50B480B4908604FF4E130486000217C
:1013800008488160C16001610C21416100218161D7
:10139000C161FFF7B1FE08B1FEF71FFF10BD0000ED
:1013A000003801401000002000BFFEE77047000039
:1013B00002480068C0F30220704700000CED00E016
:1013C00010B5002807DA0A07140E054A00F00F03CB
:1013D0001B1FD45403E00A07130E024A135410BD16
:1013E00018ED00E000E400E07047000008B508498F
:1013F0000968C9084FF47A72B1FBF2F141430091D8
:1014000000BF00BF00994A1E00920029F9D108BD13
:101410000C000020704710B5FFF764F910BD00B54F
:101420008FB0282105A8FEF7B8FE14216846FEF704
:10143000B4FE0120059000040690002007900120D2
:10144000099002200C90C1030D914FF4E0110E9110
:1014500005A8FFF76FFB08B1FEF7BFFE0F20009055
:1014600002200190002002904FF480600390002041
:10147000049002216846FFF705FA08B1FEF7ADFEB9
:101480000FB000BD1148006840F001000F4908602E
:10149000084640680E4908400C4948600846006804
:1014A0000C490840094908600846006820F480207B
:1014B00008600846406820F4FE0048604FF41F00B2
:1014C0008860C803044908607047000000100240AB
:1014D0000000FFF8FFFFF6FE08ED00E070B50546DE
:1014E0006C6A0020E085E0842046FFF75DFD70BD5A
:1014F0000168C96821F490710268D1600168496986
:1015000021F0010102685161202180F83A107047F2
:1015100010B504462068C06820F040002168C8600B
:10152000202084F839002046FFF7D8FE002010BDA7
:1015300070B5044694F83A0022284AD1A068B0F564
:10154000805F13D1A56A206940B920684068C0F364
:1015500008002880A06A801CA06219E0206840680A
:10156000C0B22880A06A401CA06211E0206938B98E
:1015700020684068C1B2A26A501CA062117007E0E6
:101580002068406800F07F01A26A501CA0621170C0
:10159000E08D401E80B2E085C8B92068C06820F0A8
:1015A00020002168C8602068C06820F4807021682D
:1015B000C8602068406920F001002168486120204F
:1015C00084F83A002046FFF71DFE002070BD002081
:1015D000FCE70220FAE700002DE9F041044600256F
:1015E0002068006920F44050E168084321680861E0
:1015F0002169A06808436169084305432068C06801
:1016000041F20C61884328432168C8602068406922
:1016100020F44070A1690843216848615F4920684F
:1016200088425CD1FFF72CFA00EBC00101EB0010FF
:1016300061688900B0FBF1F6FFF722FA00EBC00108
:1016400001EB001061688900B0FBF1F06421B0FB90
:10165000F1F000EBC00101EB0010A6EB800032219D
:1016600001EB00106421B0FBF1F000F0F006FFF791
:1016700007FA00EBC00101EB001061688900B0FBC4
:10168000F1F06421B0FBF1F006EB0016FFF7F8F97A
:1016900000EBC00101EB001061688900B0FBF1F7BD
:1016A000FFF7EEF900EBC00101EB00106168890063
:1016B000B0FBF1F06421B0FBF1F000EBC00101EBF5
:1016C0000010A7EB8000322101EB00106421B0FB79
:1016D000F1F000F00F003044216888605BE0FFF714
:1016E000BFF900EBC00101EB001061688900B0FB9D
:1016F000F1F6FFF7B5F900EBC00101EB00106168EE
:101700008900B0FBF1F06421B0FBF1F000EBC00107
:1017100001EB0010A6EB8000322101EB00106421E8
:10172000B0FBF1F000F0F006FFF79AF900EBC00112
:1017300001EB001061688900B0FBF1F06421B0FB9F
:10174000F1F006EB0016FFF78BF900EBC00101EB9F
:10175000001061688900B0FBF1F7FFF781F900EB39
:10176000C00101EB001061688900B0FBF1F0642159
:10177000B0FBF1F000EBC00101EB0010A7EB800023
:10178000322101EB00106421B0FBF1F000F00F00FA
:10179000304421688860BDE8F081000000380140D5
:1017A000014691F8390021282CD18868B0F5805F76
:1017B0000FD10A6A1088C0F308000B6858600869E6
:1017C00018B9086A801C086209E0086A401C0862AF
:1017D00005E00B6A581C086218780B685860C88CC2
:1017E000401E80B2C88458B90868C06820F08000E4
:1017F0000B68D8600868C06840F040000B68D8608B
:10180000002070470220FCE72DE9F04104460D4618
:1018100017469846069E21E0701CF8B12EB1FEF7DF
:101820005BFFA0EB0800B04218D92068C06820F424
:10183000D0702168C8602068406920F001002168EC
:101840004861202084F8390084F83A0000BF002065
:1018500084F8380000BF0320BDE8F08120680068EC
:101860002840A84201D1012000E00020B842D3D096
:101870000020F1E710B50248FFF798FB10BD00000B
:101880001000002000BFFEE702E008C8121F08C1D8
:10189000002AFAD170477047002001E001C1121FF1
:1018A000002AFBD17047000088B01C220CA101A8BF
:1018B000FEF75AFC1C24FEF721FFFFF7B0FDFFF7EF
:1018C00011FDFFF755FD0AE04FF480710B48FEF75C
:1018D000F9FE6423224601A90948FFF794FCF3E7C7
:1018E0007374756479206375626520666F72207306
:1018F000746D333266313033200D0A000008014028
:10190000100000200000000000000000010203049D
:101910000607080900000000010203043C19000842
:101920000000002010000000881800084C19000872
:10193000100000204004000098180008000000007B
:0C194000100000000100000000A24A049A
:0400000508000131BD
:00000001FF
