:020000040800F2
:10000000B8070020450100086D1800085F130008BC
:10001000691800082B020008451D000800000000B8
:10002000000000000000000000000000D5180008DB
:100030002F02000800000000A9180008D7180008C7
:100040005F0100085F0100085F0100085F01000810
:100050005F0100085F0100085F0100085F01000800
:100060005F0100085F0100085F0100085F010008F0
:100070005F0100085F0100085F0100085F010008E0
:100080005F0100085F0100085F0100085F010008D0
:100090005F0100085F0100085F0100085F010008C0
:1000A0005F0100085F0100085F0100085F010008B0
:1000B0005F0100085F0100085F0100085F010008A0
:1000C0005F0100085F0100085F0100085F01000890
:1000D0005F010008351D00085F0100085F0100088E
:1000E0005F0100085F0100085F0100085F01000870
:1000F0005F0100085F0100085F0100085F01000860
:100100005F0100085F0100085F0100085F0100084F
:100110005F0100085F0100085F0100085F0100083F
:100120005F0100085F0100085F0100085F0100082F
:10013000DFF80CD000F03CF800480047691D0008CB
:10014000B80700200648804706480047FEE7FEE75C
:10015000FEE7FEE7FEE7FEE7FEE7FEE7FEE7FEE777
:10016000451900083101000840EA01039B0703D04C
:1001700009E008C9121F08C0042AFAD203E011F8E6
:10018000013B00F8013B521EF9D27047D2B201E0A8
:1001900000F8012B491EFBD270470022F6E710B58C
:1001A00013460A4604461946FFF7F0FF204610BDE5
:1001B000064C074D06E0E06840F0010394E80700B4
:1001C00098471034AC42F6D3FFF7B6FFB4300008BE
:1001D000D430000870B58C1810F8015B15F00703D7
:1001E00001D110F8013B2A1106D110F8012B03E0D0
:1001F00010F8016B01F8016B5B1EF9D12B0705D4D8
:100200000023521E0DD401F8013BFAE710F8013B20
:10021000CB1A921C03E013F8015B01F8015B521E3C
:10022000F9D5A142D8D3002070BD00BFFEE77047CA
:100230007047000070B50446002594F8210002289C
:1002400003D00420A0630125C1E02068006820F0ED
:100250000E00216808602068006820F00100216815
:1002600008605C492068884252D95A497839206828
:10027000884201D1012047E056496439206888420C
:1002800001D1102040E0534950392068884201D103
:10029000801539E04F493C392068884201D18014EB
:1002A00032E04C4928392068884202D14FF480302E
:1002B0002AE0484914392068884202D14FF480105E
:1002C00022E044492068884201D140041CE04249B0
:1002D0002068884201D1012016E03F49143120688E
:1002E000884201D110200FE03B4928312068884224
:1002F00001D1801508E038493C312068884201D19D
:10030000801401E04FF480303349091F086051E048
:10031000304978392068884201D1012047E02D49D1
:1003200064392068884201D1102040E029495039C1
:100330002068884201D1801539E026493C3920687F
:10034000884201D1801432E022492839206888424D
:1003500002D14FF480302AE01E49143920688842C7
:1003600002D14FF4801022E01A492068884201D15E
:1003700040041CE018492068884201D1012016E0A1
:10038000154914312068884201D110200FE012492C
:1003900028312068884201D1801508E00E493C319F
:1003A0002068884201D1801401E04FF4803009496F
:1003B00080394860012084F8210000BF002084F8C3
:1003C000200000BF606B10B12046616B8847284653
:1003D00070BD0000800002400804024070B5044671
:1003E00000F0BAF906462546681C10B104480078AA
:1003F000054400BF00F0B0F9801BA842FAD370BDDD
:10040000080000202DE9F8470246002400200025BE
:100410008446002700237BE14FF0010808FA03F42B
:10042000D1F8008008EA0400A0427DD1DFF8ECA2F8
:10043000D1F80480A8EB0A09D0453AD014DCB8F111
:10044000030F50D009DCB8F1000F31D0B8F1010F23
:100450001CD0B8F1020F49D120E0B8F1110F18D02B
:10046000B8F1120F42D11EE0B9F5881F25D006DC85
:10047000B9F5803F20D0B9F5801F37D11AE0B9F522
:10048000001F18D0B9F5041F30D117E0D1F80CC007
:100490002DE0D1F80C8008F1040C28E0D1F80C8094
:1004A00008F1080C23E0D1F80C8008F10C0C1EE0D8
:1004B00000BF00BF00BF00BF00BF00BFD1F8088071
:1004C000B8F1000F02D14FF0040C0BE0D1F8088016
:1004D000B8F1010F03D14FF0080C146102E04FF0A6
:1004E000080C546103E04FF0000C00E000BF00BFB7
:1004F000FF2801D8904601E002F104084646FF2893
:1005000002D84FEA830803E0A3F108084FEA8808FD
:100510004746D6F800804FF00F0909FA07F928EA94
:1005200009080CFA07F900E07AE048EA0908C6F879
:100530000080D1F8048008F08058B8F1805F6FD156
:1005400000BFDFF8DC81D8F8188048F00108DFF838
:10055000D091C9F81880C846D8F8188008F001086A
:10056000CDF8008000BF00BF4FEAB9384FEA9309C9
:1005700058F829504FEA83784FEA18794FF00F085E
:1005800008FA09F825EA0805DFF89881424502D102
:100590004FF0000824E0DFF89081424502D14FF08F
:1005A00001081DE0DFF88481424502D14FF00208C6
:1005B00016E0DFF87C81424502D14FF003080FE0DE
:1005C000DFF87081424502D14FF0040808E0DFF8FF
:1005D0006881424502D14FF0050801E04FF006085E
:1005E0004FEA83794FEA197908FA09F848EA0505CC
:1005F000DFF848814FEA930948F82950D1F8048080
:1006000008F48038B8F5803F0BD1DFF83481D8F892
:10061000008048EA0008DFF82891C9F800800AE065
:1006200075E0DFF81C81D8F8008028EA0008DFF8C0
:100630001091C9F80080D1F8048008F40038B8F5AA
:10064000003F0ED1DFF8F88008F10408D8F80080E8
:1006500048EA0008DFF8E89009F10409C9F80080C9
:100660000DE0DFF8DC8008F10408D8F8008028EA03
:100670000008DFF8CC9009F10409C9F80080D1F82E
:10068000048008F48018B8F5801F0ED1DFF8B08020
:1006900008F10808D8F8008048EA0008DFF8A090C0
:1006A00009F10809C9F800800DE0DFF8948008F12D
:1006B0000808D8F8008028EA0008DFF8849009F1DB
:1006C0000809C9F80080D1F8048008F40018B8F5CA
:1006D000001F0ED1DFF8688008F10C08D8F8008000
:1006E00048EA0008DFF8589009F10C09C9F80080C1
:1006F0000DE0DFF84C8008F10C08D8F8008028EAFB
:100700000008DFF83C9009F10C09C9F800805B1C77
:10071000102BFFF481AEBDE8F88700000000111037
:100720000010024000080140000C01400010014090
:100730000014014000180140001C01400800014065
:1007400000040140C2684A40C26070470AB10161BA
:1007500001E00B0403617047014800687047000026
:100760000000002003480068034909780844014953
:1007700008607047000000200800002010B50848FD
:10078000006840F0100006490860032000F0A6F859
:10079000002000F007F800F02BF8002010BD00004A
:1007A0000020024070B504460E4800784FF47A717C
:1007B000B1FBF0F00C490968B1FBF0F5284600F0F8
:1007C00019FC08B1012070BD102C07D2002221466F
:1007D000501E00F044F80548046001E00120F2E7F3
:1007E0000020F0E7080000200C000020040000209A
:1007F00008B500BF1148806940F001000F498861C9
:100800000846806900F00100009000BF00BF00BFF3
:100810000846C06940F08050C8610846C06900F0D1
:100820008050009000BF00BF00BF0549486820F01D
:10083000E06040F00070486000BF08BD001002405A
:100840000000014000BF00F01F0201219140420959
:10085000920002F1E022C2F8001100BF70472DE9BA
:10086000F05F80460D461646002701F001F8074666
:1008700039462A46334601F00700C0F1070ABAF1AB
:10088000040F02D94FF0040A01E0C0F1070AD14673
:1008900000F1040ABAF1070F02D24FF0000A01E09A
:1008A000A0F1030AD4464FF0010A0AFA09FAAAF1A4
:1008B000010A0AEA020A0AFA0CFA4FF0010B0BFAD3
:1008C0000CFBABF1010B0BEA030B4AEA0B042146CC
:1008D000404600F0D5FFBDE8F09F000000BF00F0EB
:1008E0000702064B19684FF6FF031940044B0B43F0
:1008F00043EA0221014B196000BF70470CED00E094
:100900000000FA0570B504460D4600266D480068E3
:1009100000F00700A8420ED26A48006820F00700E5
:100920002843684908600846006800F00700A842AC
:1009300001D0012070BD207800F0020002281DD1F6
:10094000207800F00400042805D15F48406840F496
:10095000E0605D494860207800F00800082805D173
:100960005948406840F460505749486056484068CC
:1009700020F0F000A168084353494860207800F057
:10098000010000285DD06068012806D14E4800684B
:1009900000F4003090B90120CCE76068022806D14D
:1009A0004948006800F0007040B90120C2E746489D
:1009B000006800F0020008B90120BBE74248406827
:1009C00020F00300616808433F494860FFF7C4FE18
:1009D00006466068012810D108E0FFF7BDFE801BC5
:1009E00041F28831884201D90320A3E736484068A4
:1009F00000F00C000428F0D123E06068022810D138
:100A000008E0FFF7A9FE801B41F28831884201D936
:100A100003208FE72C48406800F00C000828F0D134
:100A20000FE008E0FFF798FE801B41F28831884212
:100A300001D903207EE72448406800F00C0000281C
:100A4000F0D12048006800F00700A8420ED91D48E8
:100A5000006820F0070028431A490860084600682B
:100A600000F00700A84201D0012063E7207800F0E1
:100A70000400042807D11448406820F4E060E168CD
:100A8000084311494860207800F00800082808D180
:100A90000D48406820F46050216940EAC1000A49CD
:100AA000486000F03DF808494968C1F30311074A5E
:100AB000515CC840064908600020FFF773FE002023
:100AC00038E7000000200240001002402C1E000801
:100AD0000C00002001480068704700000C00002056
:100AE00000B5FFF7F7FF04494968C1F30221034A43
:100AF000515CC84000BD0000001002403C1E0008D0
:100B000000B5FFF7E7FF04494968C1F3C221034A72
:100B1000515CC84000BD0000001002403C1E0008AF
:100B2000F0B585B00FF26C0C9CE8E01001A8A0E8CD
:100B3000E0101CA52D680095002100220023002450
:100B40000020194D696801F00C05F5B1042D02D0A3
:100B5000082D19D101E0154819E001ADC1F3834614
:100B6000AC5D01F4803555B10F4D6D68C5F340455E
:100B70001DF805200D4D6543B5FBF2F302E00C4D69
:100B800004FB05F3184602E000BF084800BF00BFA1
:100B900005B0F0BD02030405060708090A0B0C0D99
:100BA0000E0F1010010200000010024000127A0027
:100BB00000093D00F8B504460025207800F001004A
:100BC000002878D0F848406800F00C0004280CD0C9
:100BD000F548406800F00C00082811D1F248406840
:100BE00000F48030B0F5803F0AD1EF48006800F48F
:100BF000003000285FD0606800285CD10120F8BD7B
:100C000000BF6068B0F5803F06D1E748006840F457
:100C10008030E549086028E0606858B9E24800681B
:100C200020F48030E04908600846006820F4802005
:100C300008601AE06068B0F5A02F0BD1DA480068B0
:100C400040F48020D84908600846006840F48030AD
:100C500008600AE0D448006820F48030D249086077
:100C60000846006820F48020086000BF606888B1F2
:100C7000FFF772FD054606E0FFF76EFD401B642896
:100C800001D90320BBE7C848006800F40030002801
:100C9000F2D010E0FFF760FD054606E0FFF75CFDCF
:100CA000401B642801D90320A9E7BF48006800F46D
:100CB00000300028F2D1207800F00200022857D13D
:100CC000B948406800F00C0050B1B748406800F0E7
:100CD0000C00082818D1B448406800F4803098B956
:100CE000B148006800F0020020B12069012801D05D
:100CF000012084E7AC48006820F0F800616940EA10
:100D0000C100A949086033E02069E8B10120A74982
:100D10000860FFF721FD054606E0FFF71DFD401BBB
:100D2000022801D903206AE79F48006800F002000A
:100D30000028F2D09C48006820F0F800616940EA81
:100D4000C1009949086013E0002098490860FFF746
:100D500003FD054606E0FFF7FFFC401B022801D912
:100D600003204CE79048006800F002000028F2D110
:100D7000207800F0080008282DD1A069B8B1012022
:100D80008B490860FFF7E8FC054606E0FFF7E4FC46
:100D9000401B022801D9032031E78348406A00F054
:100DA00002000028F2D0012000F080FD13E00020B6
:100DB0007F490860FFF7D0FC054606E0FFF7CCFC52
:100DC000401B022801D9032019E77748406A00F048
:100DD00002000028F2D1207800F00400042873D12A
:100DE00000267148C06900F0805070B900BF6E489D
:100DF000C06940F080506C49C8610846C06900F085
:100E00008050009000BF00BF01266A48006800F4CF
:100E10008070B0B96748006840F480706549086028
:100E2000FFF79AFC054606E0FFF796FC401B642896
:100E300001D90320E3E65F48006800F480700028D1
:100E4000F2D000BFE068012806D15748006A40F0A0
:100E500001005549086227E0E06858B95248006A25
:100E600020F00100504908620846006A20F00400A2
:100E7000086219E0E06805280BD14B48006A40F091
:100E80000400494908620846006A40F0010008620F
:100E90000AE04548006A20F001004349086208461C
:100EA000006A20F00400086200BFE068A0B1FFF70C
:100EB00053FC054609E0FFF74FFC401B41F2883127
:100EC000884202D903209AE622E03748006A00F0FF
:100ED00002000028EFD012E0FFF73EFC054608E0D4
:100EE000FFF73AFC401B41F28831884201D90320C8
:100EF00085E62D48006A00F002000028F0D1012E9E
:100F000005D12948C06920F080502749C86100BF39
:100F1000E069C8B32448406800F00C00082860D09D
:100F2000E069022848D1002020490866FFF714FC38
:100F3000054606E0FFF710FC401B022801D90320FC
:100F40005DE61948006800F000700028F2D1206AC0
:100F5000B0F5803F07D11448406820F40030A16804
:100F6000084311494860D4E9080108430E4949681B
:100F700021F4741108430C49486001200B490866AC
:100F8000FFF7EAFB054607E02DE0FFF7E5FB401B16
:100F9000022801D9032032E60348006800F00070FF
:100FA0000028F2D01FE00000001002400000424282
:100FB000800442420070004000200C490866FFF7A0
:100FC000CBFB054606E0FFF7C7FB401B022801D913
:100FD000032014E60648006800F000700028F2D1F3
:100FE00001E001200BE6002009E60000000042427B
:100FF0000010024070B504462546681EB0F1807F9F
:1010000001D301200FE0681E4FF0E02148610F215D
:101010004FF0FF3000F034FC00204FF0E0218861F9
:1010200007200861002070BD704700002DE9F047DF
:101030000446206805682068C668206847694FF044
:101040000008C14605F00F08B8F1000F0AD105F0FD
:10105000200038B106F0200020B1204600F0C8FC86
:10106000BDE8F087B8F1000F6DD007F0010018B9A6
:1010700006F49070002866D005F0010030B106F447
:10108000807018B1E06B40F00100E06305F00400EF
:1010900030B107F0010018B1E06B40F00200E063EE
:1010A00005F0020030B107F0010018B1E06B40F02C
:1010B0000400E06305F0080030B107F0010018B14A
:1010C000E06B40F00800E063E06B68B305F02000DF
:1010D00028B106F0200010B1204600F089FC2068FD
:1010E0004069C0F38019E06B00F0080010B9B9F155
:1010F000000F22D0204600F05BFC2068406900F021
:101100004000B0B12068406920F04000216848618B
:10111000606B50B11748616B4863606BFFF78AF8EA
:1011200010B1606B416B88470CE02046FFF77CFFF5
:1011300008E02046FFF778FF04E02046FFF774FF41
:101140000020E0638CE705F0800030B106F08000FD
:1011500018B1204600F084FD82E705F0400030B170
:1011600006F0400018B1204600F032FC78E700BFDE
:1011700076E700009D19000810B504460CB901205F
:1011800010BDA06900B100E000BF94F8390028B993
:10119000002084F83800204600F028F8242084F845
:1011A00039002068C06820F400502168C8602046DB
:1011B00000F072FC2068006920F49040216808610A
:1011C0002068406920F02A00216848612068C068D2
:1011D00040F400502168C8600020E063202084F8BB
:1011E000390084F83A000020CAE7000010B586B044
:1011F0000446002002900390049005901E49206848
:10120000884236D100BF1D48806940F480401B49A8
:1012100088610846806900F48040019000BF00BFEB
:1012200000BF0846806940F0040088610846806974
:1012300000F00400019000BF00BF4815029002209A
:1012400003900320059002A90D48FFF7DBF84FF447
:101250008060029000200390049002A90848FFF7E4
:10126000D1F8002202212520FFF7F9FA2520FFF707
:10127000E9FA06B010BD000000380140001002403D
:101280000008014070472DE9F84304460D46164614
:101290001F464FF0000994F8390020285CD105B1B1
:1012A00016B90120BDE8F88300BF94F83800012882
:1012B00001D10220F6E7012084F8380000BF0020A9
:1012C000E063212084F83900FFF746FA8146A684BE
:1012D000E6842BE0E08C401EE084A068B0F5805FDF
:1012E00016D14B46002280212046009700F0ECFCEE
:1012F00008B10320D6E7A846B8F80000C0F30800FC
:1013000021684860206908B9AD1C0FE06D1C0DE034
:101310004B46002280212046009700F0D5FC08B102
:101320000320BFE715F8010B21684860E08C002816
:10133000D0D14B46002240212046009700F0C4FC4B
:1013400008B10320AEE7202084F8390000BF002058
:1013500084F8380000BFA5E70220A3E7704700BF6C
:10136000FEE72DE9F04107460C4615461E462A20A9
:1013700000F0E0F8384600F0BDF8284600F0BAF872
:101380002B2000F0D7F8204600F0B4F8304600F0EB
:10139000B1F82C2000F0CEF8BDE8F08170B506461B
:1013A000EF231A4600210846FFF7DBFF002408E080
:1013B000002503E0304600F09DF86D1CF02DF9D3B8
:1013C000641CF02CF4D370BD70B504460D4616466F
:1013D0002B46224629462046FFF7C3FF304600F041
:1013E00089F870BD2DE9F84F05460F4616469A4616
:1013F000DDF828B00095E02D01D8E02F01D9BDE837
:10140000F88FA6F12000C6B207F10F03EA1D394696
:101410002846FFF7A6FFBAF1000F25D1002420E0EF
:1014200004EB0610214911F800904FF0000811E07C
:1014300009F0010018B1584600F05CF803E01C48C0
:10144000006800F057F84FEA69096D1C08F10100C7
:1014500000F0FF08B8F1080FEADB009D7F1C601C5C
:10146000C4B2102CDCDB1FE000241BE004EB0610F0
:101470000E4911F800904FF000080EE009F001004D
:1014800028B1391905EB08005A46FFF79DFF4FEACE
:10149000690908F1010000F0FF08B8F1080FEDDB61
:1014A000601CC4B2102CE1DB00BFA8E7441E00089A
:1014B00070030020F8B505460E4614461F4615E099
:1014C000E02D01D900251036E02E06D90020054672
:1014D00006464FF47840FFF761FF0097227800231B
:1014E00031462846FFF77EFF0835641C2078002827
:1014F000E6D1F8BD10B50446012240210548FFF7AA
:1015000025F9C4F3072000F023F8E0B200F020F83A
:1015100010BD00000010014010B50446012240211A
:101520000348FFF713F9204600F012F810BD000041
:101530000010014010B50446002240210348FFF787
:1015400005F9204600F004F810BD0000001001402D
:1015500070B5044600251DE000224FF400510F48ED
:10156000FFF7F4F804F0800028B1012211030B48C2
:10157000FFF7ECF805E000224FF480510748FFF731
:10158000E5F8012251030548FFF7E0F86006040E74
:10159000681CC5B2082DDFDB70BD0000000C0140E7
:1015A00010B500224FF400716348FFF7CFF8142004
:1015B000FEF714FF012251025F48FFF7C7F814201D
:1015C000FEF70CFF012280215B48FFF7BFF83620B1
:1015D000FFF7B0FF0020FFF79FFF3A20FFF7AAFFB9
:1015E0000520FFF799FFB220FFF7A4FF0C20FFF7BB
:1015F00093FF0C20FFF790FF0020FFF78DFF3320B3
:10160000FFF78AFF3320FFF787FFB720FFF792FF2E
:101610003520FFF781FFBB20FFF78CFF1920FFF774
:101620007BFFC020FFF786FF2C20FFF775FFC2204D
:10163000FFF780FF0120FFF76FFFC320FFF77AFF5E
:101640001220FFF769FFC420FFF774FF2020FFF787
:1016500063FFC620FFF76EFF0F20FFF75DFFD0206E
:10166000FFF768FFA420FFF757FFA120FFF754FF03
:10167000E020FFF75FFFD020FFF74EFF0420FFF7C9
:101680004BFF0D20FFF748FF1120FFF745FF132008
:10169000FFF742FF2B20FFF73FFF3F20FFF73CFF04
:1016A0005420FFF739FF4C20FFF736FF1820FFF7D3
:1016B00033FF0D20FFF730FF0B20FFF72DFF1F201A
:1016C000FFF72AFF2320FFF727FFE120FFF732FF74
:1016D000D020FFF721FF0420FFF71EFF0C20FFF7AB
:1016E0001BFF1120FFF718FF1320FFF715FF2C2019
:1016F000FFF712FF3F20FFF70FFF4420FFF70CFF1B
:101700005120FFF709FF2F20FFF706FF1F20FFF7EB
:1017100003FF1F20FFF700FF2020FFF7FDFE23201F
:10172000FFF7FAFE2120FFF705FF1120FFF702FF68
:101730002920FFF7FFFE10BD0010014000B585B065
:101740000020019002900390049000BF344880690B
:1017500040F01000324988610846806900F01000AE
:10176000009000BF00BF00BF0846806940F0200025
:1017700088610846806900F02000009000BF00BF2B
:1017800000BF0846806940F008008861084680690B
:1017900000F00800009000BF00BF00BF084680694D
:1017A00040F0040088610846806900F00400009061
:1017B00000BF00BF01224FF430411A48FEF7C6FFB8
:1017C00001224FF430711848FEF7C0FF01221102C8
:1017D0001648FEF7BBFF4FF4304001900120029005
:1017E00003900320049001A90E48FEF70BFE4FF46E
:1017F000307001900120029003900320049001A911
:101800000948FEF7FFFD4FF480700190012002901F
:101810000390049001A90548FEF7F4FD05B000BD52
:1018200000100240000C014000100140000801407F
:1018300010B50B480B4908604FF4E13048600021B7
:1018400008488160C16001610C2141610021816112
:10185000C161FFF791FC08B1FEF7EAFC10BD000082
:10186000003801407403002000BFFEE7704700000D
:1018700002480068C0F30220704700000CED00E051
:1018800010B5002807DA0A07140E054A00F00F0306
:101890001B1FD45403E00A07130E024A135410BD51
:1018A00018ED00E000E400E07047000008B50849CA
:1018B0000968C9084FF47A72B1FBF2F14143009113
:1018C00000BF00BF00994A1E00920029F9D108BD4F
:1018D0000C000020704710B5FEF744FF10BD00B5A6
:1018E0008FB0282105A8FEF758FC14216846FEF7A2
:1018F00054FC012005900004069000200790012070
:10190000099002200C90C1030D914FF4E0110E914B
:1019100005A8FFF74FF908B1FEF78AFC0F200090E9
:1019200002200190002002904FF48060039000207C
:10193000049002216846FEF7E5FF08B1FEF778FC47
:101940000FB000BD1148006840F001000F49086069
:10195000084640680E4908400C494860084600683F
:101960000C490840094908600846006820F48020B6
:1019700008600846406820F4FE0048604FF41F00ED
:101980008860C803044908607047000000100240E6
:101990000000FFF8FFFFF6FE08ED00E070B5054619
:1019A0006C6A0020E085E0842046FFF73DFB70BDB7
:1019B0000168C96821F490710268D16001684969C1
:1019C00021F0010102685161202180F83A1070472E
:1019D00010B504462068C06820F040002168C86047
:1019E000202084F839002046FFF7B8FC002010BD05
:1019F00070B5044694F83A0022284AD1A068B0F5A0
:101A0000805F13D1A56A206940B920684068C0F39F
:101A100008002880A06A801CA06219E02068406845
:101A2000C0B22880A06A401CA06211E0206938B9C9
:101A300020684068C1B2A26A501CA062117007E021
:101A40002068406800F07F01A26A501CA0621170FB
:101A5000E08D401E80B2E085C8B92068C06820F0E3
:101A600020002168C8602068C06820F48070216868
:101A7000C8602068406920F001002168486120208A
:101A800084F83A002046FFF7FDFB002070BD0020DF
:101A9000FCE70220FAE700002DE9F04104460025AA
:101AA0002068006920F44050E1680843216808611B
:101AB0002169A06808436169084305432068C0683C
:101AC00041F20C61884328432168C860206840695E
:101AD00020F44070A1690843216848615F4920688B
:101AE00088425CD1FFF70CF800EBC00101EB00105D
:101AF00061688900B0FBF1F6FFF702F800EBC00166
:101B000001EB001061688900B0FBF1F06421B0FBCB
:101B1000F1F000EBC00101EB0010A6EB80003221D8
:101B200001EB00106421B0FBF1F000F0F006FEF7CD
:101B3000E7FF00EBC00101EB001061688900B0FB1A
:101B4000F1F06421B0FBF1F006EB0016FEF7D8FFD0
:101B500000EBC00101EB001061688900B0FBF1F7F8
:101B6000FEF7CEFF00EBC00101EB001061688900B9
:101B7000B0FBF1F06421B0FBF1F000EBC00101EB30
:101B80000010A7EB8000322101EB00106421B0FBB4
:101B9000F1F000F00F003044216888605BE0FEF750
:101BA0009FFF00EBC00101EB001061688900B0FBF2
:101BB000F1F6FEF795FF00EBC00101EB0010616844
:101BC0008900B0FBF1F06421B0FBF1F000EBC00143
:101BD00001EB0010A6EB8000322101EB0010642124
:101BE000B0FBF1F000F0F006FEF77AFF00EBC00169
:101BF00001EB001061688900B0FBF1F06421B0FBDB
:101C0000F1F006EB0016FEF76BFF00EBC00101EBF5
:101C1000001061688900B0FBF1F7FEF761FF00EB8F
:101C2000C00101EB001061688900B0FBF1F0642194
:101C3000B0FBF1F000EBC00101EB0010A7EB80005E
:101C4000322101EB00106421B0FBF1F000F00F0035
:101C5000304421688860BDE8F08100000038014010
:101C6000014691F8390021282CD18868B0F5805FB1
:101C70000FD10A6A1088C0F308000B685860086921
:101C800018B9086A801C086209E0086A401C0862EA
:101C900005E00B6A581C086218780B685860C88CFD
:101CA000401E80B2C88458B90868C06820F080001F
:101CB0000B68D8600868C06840F040000B68D860C6
:101CC000002070470220FCE72DE9F04104460D4654
:101CD00017469846069E21E0701CF8B12EB1FEF71B
:101CE0003BFDA0EB0800B04218D92068C06820F482
:101CF000D0702168C8602068406920F00100216828
:101D00004861202084F8390084F83A0000BF0020A0
:101D100084F8380000BF0320BDE8F0812068006827
:101D20002840A84201D1012000E00020B842D3D0D1
:101D30000020F1E710B50248FFF778F910BD000068
:101D40007403002000BFFEE702E008C8121F08C1AC
:101D5000002AFAD170477047002001E001C1121F2C
:101D6000002AFBD17047000088B01C221BA101A8EB
:101D7000FEF7FAF91C2500BF0024FEF7FFFCFFF771
:101D80000FFC0020FFF70AFB00201B490860FFF74B
:101D9000A6FDFFF7D3FCFFF74BFD1EE04FF480716B
:101DA0001648FEF7CFFC64232A4601A91448FFF722
:101DB0006AFA002408E04FF4FC6312A221460020D6
:101DC000FFF778FBE01CC4B2DC2CF4DB4FF4FC63BF
:101DD00011A2DC210020FFF76DFBDFE7737475644F
:101DE00079206375626520666F722073746D33327B
:101DF00066313033200D0A007003002000080140D6
:101E00007403002053747564792053544D33324663
:101E10003130333A000000002020202020202020F4
:101E200020202020202020200000000000000000B2
:101E3000000000000102030406070809000000007A
:101E40000102030400000000000000000000000088
:101E5000000000000000000808080808080800004A
:101E60001818000000486C24120000000000000058
:101E7000000000000000002424247F1212127F12B0
:101E8000121200000000081C2A2A0A0C1828282A0E
:101E90002A1C080800000022251515152A5854543C
:101EA000542200000000000C1212120A762529119B
:101EB000916E000000060604030000000000000010
:101EC0000000000000402010100808080808081052
:101ED0001020400000020408081010101010100814
:101EE000080402000000000008086B1C1C6B0808B6
:101EF0000000000000000000080808087F0808082B
:101F000008000000000000000000000000000000C9
:101F1000060604030000000000000000FE000000B0
:101F200000000000000000000000000000000000B1
:101F30000606000000008040402020101008080421
:101F4000040202000000001824424242424242427F
:101F500024180000000000080E08080808080808F7
:101F6000083E00000000003C4242422020100804CD
:101F7000427E00000000003C4242201820404042C7
:101F8000221C0000000000203028242422227E2071
:101F9000207800000000007E0202021A2640404223
:101FA000221C0000000000382402021A264242428D
:101FB000241800000000007E2222101008080808E3
:101FC000080800000000003C42424224182442421B
:101FD000423C000000000018244242426458404045
:101FE000241C000000000000000018180000000081
:101FF00018180000000000000000000800000000A9
:102000000008080400000040201008040204081022
:10201000204000000000000000007F0000007F0062
:1020200000000000000000020408102040201008FA
:10203000040200000000003C424246402010100014
:10204000181800000000001C225A555555552D4205
:10205000221C00000000000808181414243C22422E
:1020600042E700000000001F2222221E22424242BC
:10207000221F00000000007C4242010101010142D8
:10208000221C00000000001F224242424242424203
:10209000221F00000000003F4212121E12120242D4
:1020A000423F00000000003F4212121E12120202C4
:1020B000020700000000003C2222010101712122E0
:1020C000221C0000000000E7424242427E4242429F
:1020D00042E700000000003E080808080808080859
:1020E000083E00000000007C1010101010101010AE
:1020F0001010110F0000007722120A0E0A1212228D
:10210000227700000000000702020202020202021F
:10211000427F000000000077363636362A2A2A2A07
:102120002A6B0000000000E346464A4A52525262BF
:10213000624700000000001C2241414141414141F1
:10214000221C00000000003F424242423E020202C6
:10215000020700000000001C2241414141414D5353
:10216000321C60000000003F4242423E1212222216
:1021700042C700000000007C424202041820404296
:10218000423E00000000007F4908080808080808CF
:10219000081C0000000000E7424242424242424224
:1021A000423C0000000000E742422224241414189C
:1021B000080800000000006B49494949555536227E
:1021C00022220000000000E74224241818182424CA
:1021D00042E70000000000772222141408080808D3
:1021E000081C00000000007E21201010080404429A
:1021F000423F000000780808080808080808080896
:1022000008087800000002020404080808101020E2
:1022100020204040001E1010101010101010101040
:1022200010101E00003844000000000000000000F4
:10223000000000000000000000000000000000009E
:10224000000000FF00060800000000000000000081
:1022500000000000000000000000003C4278444202
:1022600042FC0000000000030202021A2642424221
:10227000261A00000000000000000038440202029C
:102280004438000000000060404040784442424230
:1022900064D80000000000000000003C427E020202
:1022A000423C0000000000F08808087E080808088A
:1022B000083E0000000000000000007C22221C02FA
:1022C0003C42423C000000030202023A46424242C3
:1022D00042E700000000000C0C00000E080808088F
:1022E000083E000000000030300000382020202090
:1022F0002020221E0000000302020272120A16129F
:10230000227700000000000E0808080808080808E6
:10231000083E0000000000000000007F92929292B0
:1023200092B70000000000000000003B464242421D
:1023300042E70000000000000000003C4242424230
:10234000423C0000000000000000001B2642424208
:10235000221E0207000000000000007844424242B2
:10236000447840E000000000000000774C040404C2
:10237000041F0000000000000000007C42023C40FE
:10238000423E0000000000000008083E080808085F
:10239000083000000000000000000063424242429A
:1023A00062DC000000000000000000E7422424146A
:1023B0000808000000000000000000EB49495555E6
:1023C00022220000000000000000007624181818E7
:1023D000246E000000000000000000E742242414E6
:1023E00018080807000000000000007E22100808FE
:1023F000447E000000C0202020202010202020202B
:102400002020C0001010101010101010101010100C
:10241000101010100006080808080810080808081E
:10242000080806000C32C200000000000000000096
:1024300000000000FFFFFFFFFFFFFFFFFFFFFFFFA8
:10244000FFFFFFFFFFFFFFFFFFFFFFFFFFFFFFFF9C
:10245000BEF77DEFBAD6B6B5F39CB294B39CB294F6
:1024600034A5F7BDFBDE7DEFFFFFFFFFFFFFFFFFA2
:10247000FFFFFFFFFFFFFFFFFFFFFFFFFFFFFFFF6C
:10248000FFFFFFFFFFFFFFFFFFFFFFFFFFFFFFFF5C
:10249000FFFFFFFFFFFFFFFFFFFFFFFFBEF7FBDEBA
:1024A000F39CCB5AC73904218210421042104108D4
:1024B00083184529C7390C6375AD3CE7BEF7FFFFAC
:1024C000FFFFFFFFFFFFFFFFFFFFFFFFFFFFFFFF1C
:1024D000FFFFFFFFFFFFFFFFFFFFFFFFFFFFFFFF0C
:1024E000FFFFFFFFFFFFFFFFFFFF3CE7B294084243
:1024F000C318821004214529863186318631863100
:102500004529042182104108C3180842F39C3CE786
:10251000FFFFFFFFFFFFFFFFFFFFFFFFFFFFFFFFCB
:10252000FFFFFFFFFFFFFFFFFFFFFFFFFFFFFFFFBB
:10253000FFFFFFFFFFFFFFFFFBDE0C63C318C318A5
:102540004529C73908420842084208420842084261
:10255000C739C73986318631042141088210CB5AE8
:10256000BAD6FFFFFFFFFFFFFFFFFFFFFFFFFFFFE9
:10257000FFFFFFFFFFFFFFFFFFFFFFFFFFFFFFFF6B
:10258000FFFFFFFFFFFFFBDECB5A82104529C73953
:1025900008420842094A494A494A494A494A494A75
:1025A0000842C739C739C739863145298318000021
:1025B000C84138C6FFFFFFFFFFFFFFFFFFFFFFFF20
:1025C000FFFFFFFFFFFFFFFFFFFFFFFFFFFFFFFF1B
:1025D000FFFFFFFF7DEF8E7382104529C739084248
:1025E000094A8A523084CF7B8A52494A4A52494A20
:1025F000CB5ACF7B0C630842C73986314529C318B3
:102600000000494ABAD6FFFFFFFFFFFFFFFFFFFFB1
:10261000FFFFFFFFFFFFFFFFFFFFFFFFFFFFFFFFCA
:10262000FFFFFFFFF39CC3180421C7390842494A42
:10263000494A72947DEF7DEFB2944A52494A8A52D8
:1026400075ADBEF7BAD64D6BC739C7398631452946
:10265000C3184108CF7B7CE7FFFFFFFFFFFFFFFFB1
:10266000FFFFFFFFFFFFFFFFFFFFFFFFFFFFFFFF7A
:10267000FFFFBAD608428210C7390842494A494A80
:102680008E73FBDEFFFFBEF7BAD68E73084230842E
:102690003CE77DEFFFFFB6B5494AC739863145298A
:1026A000042141084529B6B5FFFFFFFFFFFFFFFFEB
:1026B000FFFFFFFFFFFFFFFFFFFFFFFFFFFFFFFF2A
:1026C000BEF7718C410845290842494A494A4A5295
:1026D000B294BEF7BEF7B294CF7BCF7B494AB6B572
:1026E000F39C0C6338C6BAD60C638739C739863178
:1026F0004529C318410830847DEFFFFFFFFFFFFF2E
:10270000FFFFFFFFFFFFFFFFFFFFFFFFFFFFFFFFD9
:102710003CE7CB5A4108C7390842494A4A528A52D3
:10272000F39CFFFF7DEFC739C3180C63CB5AB6B5D6
:10273000B294CB5A75ADFAD64D6B8739C73986310D
:102740004529042141088A5279CEFFFFFFFFFFFF90
:10275000FFFFFFFFFFFFFFFFFFFFFFFFFFFFFFFF89
:1027600038C686310421C841494A494A4A52494A31
:10277000B18CBEF7BEF7B294CF7BCF7B494A74A52C
:102780007DEF7CE7BEF779CE0C63C739C739863158
:10279000452904218210452975ADBEF7FFFFFFFFD3
:1027A000FFFFFFFFFFFFFFFFFFFFFFFFFFFFFFFF39
:1027B00034A5821086310842494A494A8A52494A18
:1027C0004D6BBAD6FFFFFFFF79CE0D63C739CF7BC4
:1027D0007DEFFFFFFFFF75AD08428631C7398631B7
:1027E00045294529C318C318B2947DEFFFFFFFFFA9
:1027F000FFFFFFFFFFFFFFFFFFFFFFFFFFFFBEF732
:10280000B28C4108C7390842494A494A8A528A5219
:102810004A4AD07B7AC67BBE906BC9398831C939A8
:10282000B384BBC6F8B5CC5A8631C739C7398631AF
:1028300045294529C420410830843CE7FFFFFFFFBC
:10284000FFFFFFFFFFFFFFFFFFFFFFFFFFFF3CE773
:102850008A4AC310C7390842494A494A4A4A4A4241
:10286000093A084A096B497BC67A05834683C57ACB
:10287000C672097B485A873188218829863186317A
:1028800045294529042141084A4ABAD6FFFFFFFFDE
:10289000FFFFFFFFFFFFFFFFFFFFFFFFFFFFF7C58A
:1028A00082500541C7290842494A4A42494A097BA0
:1028B000889BC6B321D4A0DCE1E461ED61ED21ED9C
:1028C000A0E420DC80CB43ABC482065A47214629D2
:1028D00045290429041982108218F39C7DEFFFFF1B
:1028E000FFFFFFFFFFFFFFFFFFFFFFFF7DEF4D93A8
:1028F00000A082B8C7310932494A867A43C36BEDDA
:10290000F4F6EBFD20FD20FD60FDA0FDA0FD60FDC7
:1029100060FD20FDE0FCA0FC60F4C1DB839AC549AA
:1029200045290419C42082380050CB6ABAD6FFFF6B
:10293000FFFFFFFFFFFFFFFFFFFFFFFFFBEE04A115
:1029400000C000F0C3A0C8414942059B20FCA4FC84
:1029500069FDE8FD63FD20FD60FD60FD60FD20FD7B
:1029600020FDE0FCE0FCA0FC60FC20FC41D3C5495C
:102970004519C438826841880070495A79CEFFFFF2
:10298000FFFFFFFFFFFFFFFFFFFFFFFFFBF682C020
:1029900000D086C146F141C8457989528862866A6D
:1029A000C67AC4BBE1FC60FD60FDA0FDA0FD60FD3A
:1029B00060FDE0FC60E403938472446AC5414529EC
:1029C000C35841A8409800B000600C6B79CEFFFF5F
:1029D000FFFFFFFFFFFFFFFFFFFF7DEFCE8382883A
:1029E00000F8C4D80CF38AFA82E882B04569C7516E
:1029F0000842083A865A839BA2BC22CD21CDA1C4AD
:102A000022B4C47A063A862945290531C45041903A
:102A100000C000A800A000A800304A4ABAD6FFFFB4
:102A2000FFFFFFFFFFFFFFFF7DEF8E73C318053928
:102A300082A800F8C3F84DFB4DFBC7F9C3F082D85C
:102A4000C3B00481456146518649864946414541A6
:102A50004541454105490461829041B000D000C81C
:102A600000A800A800B8415882108210B294BEF7A6
:102A7000FFFFFFFFFFFFBEF7CF7B821004218629F7
:102A80008641049940E841F886F9CBFA49FA82F880
:102A900000F800F000E841D841D041C041C041C039
:102AA00041C041C800D000E000E000D800D000B82C
:102AB00000A841888248821082100000452979CE02
:102AC000FFFFFFFFBEF7F39C8210C3184529863134
:102AD000C731307CF3DC86E100F000F841F841F8C2
:102AE00000F800F800F800F800F800F800F800F826
:102AF00000F800F800E800E000E000D800C841A0BD
:102B00008A9A0C63041182108210410800004D6BF8
:102B10007DEFFFFFFBDE08424210452986318631FA
:102B2000494A38BEFFFF38D686A900C800E000F049
:102B300000F800F800F800F800F800F800F800F8D5
:102B400000F000F000E800E000D0C3988A8AB2A448
:102B5000BAC6F7B50842410882104108000045296D
:102B6000F7BDFFFF718C410804214529863186316C
:102B70000C633CE7FFFF79D646B900E042C882A863
:102B800082B041D882E882F041E841E841E841F072
:102B900041E841D804C108924D8B34A5FBC6FBD651
:102BA000BACE3CE73084C318410841080000410810
:102BB000CF7B7DEF494A000004214529463186310B
:102BC0003084FFFFFFF7F7DD09DA83F801F042C038
:102BD0008298499AF3B4F3CC71BC8EBB8EBB30BCE7
:102BE00071BCF3BCB6BDFBCEBEE77DE73BDFBAD61A
:102BF00079CEFBDE75AD863141084108000000004A
:102C0000494AFBDE04214108042145294529873929
:102C1000B294FFFFBEF734DD0CEB09FA00F001D8E7
:102C200000D88BD27DE7FFFFFFFFFFFFFFFFFFFF15
:102C3000FFFFFFFFFFFFBEFF7DEFFBDEFBDEBAD62F
:102C400079CEBAD678C6C739000041080000000026
:102C5000C73979CE00008210C318042105298631B6
:102C6000B39CFFFFFFF775DDC7E9C7F901F801F075
:102C700000E849E2FBEEFFFFFFFFFFFFFFFFFFFF62
:102C8000FFFFFFFFFFFFBEF77DEFFBDEFBDEBAD6E7
:102C900079CEBAD6B9CE084200000000000000008C
:102CA000C73938C60000821082100421042145294A
:102CB0003084FFFFFFFF38DEC4D000F001F800F8D9
:102CC00000F008D2FBE6FFFFFFFFFFFFFFFFFFFF63
:102CD000FFFFFFFFFFFFBEF77DEFFBDEBAD679CE29
:102CE00079CEBAD679CEC73941080000000000007D
:102CF000863138C600000000C318CB5A8631C3188D
:102D0000CB5A7DEFFFFF7DEFCFBBC3B041D041D0A9
:102D100082B84DB37DE7FFFFFFFFFFFFFFFFFFFF1F
:102D2000FFFFFFFFBEF7BEF73DEFFBDEBAD679CE61
:102D300079CEFAD6F7BD04218631042100000000C7
:102D4000863138C68631C318CB5A75ADCF7B410862
:102D50008631F7BDFFFFFFFFBEEF74B5309C309C9E
:102D600072A4BBD6FFFFFFFFFFFFFFFFFFFFFFFFC8
:102D7000FFFFFFFFBEF77DEF3CE7FBDEBAD679CE63
:102D800079CE3CE7718C81080C63CF7B8210000008
:102D90008A5238C675AD718CB6B53CE7FBDEC739D3
:102DA0000000CF73FFFFFFFFFFFFFFFFFFFFFFFFED
:102DB000FFFFFFFFFFFFFFFFFFFFFFFFFFFFFFFF23
:102DC000FFFFBEF77DEF7DEF3BDFFAD679CE79CE00
:102DD000FBDEB9CEC739C420718CBAD6718CCB5A00
:102DE000B294BAD6FFFF7DEF7DEFFFFFFFFFB6B5D0
:102DF0004629051975A5FFFFFFFFFFFFFFFFFFFF36
:102E0000FFFFFFFFFFFFFFFFFFFFFFFFFFFFFFFFD2
:102E1000FFFFBEF77DEF3CE7FBDEBAD679CEBAD630
:102E2000FCDE4E6342080C63F7BDBEF7FFFFFBDE1E
:102E3000FBDEBEF7FFFFFFFFFFFFFFFFFFFFFFFF10
:102E4000F49C04210521B6A5FFFFFFFFFFFFFFFF54
:102E5000FFFFFFFFFFFFFFFFFFFFFFFFFFFFBEF7CB
:102E6000BEF77DEF3CE7FBDEBAD679CEFBDEBBD604
:102E7000D17383188639349DBDEFFFFFFFFFFFFF3D
:102E8000FFFFFFFFFFFFFFFFFFFFFFFFBEFF35D686
:102E9000EBCC43B340510519F58CBEEFFFFFFFFFAC
:102EA000FFFFFFFFFFFFFFFFFFFFBEF7BEF77DEF56
:102EB0007DEF3CE7FBDEBADEBAD63CDF3ABE4F63BD
:102EC000824940A323B4CC833ABEFFFFFFFFFFFF3C
:102ED000FFFFFFFFFFFFFFFFFFFFBFF7B5BD8292C0
:102EE00020F4A0FC60E4408284418F6B77AD3DE725
:102EF000FFFFFFFFFEFFBEF7BEF7BEF77DEF7DEFE2
:102F00003CE7FBDEFBDE3DE7BBCE369D0B6B416A4B
:102F100060C420FE60F5008BC76A38C6BEF7FFFFAD
:102F2000FFFFFFFFFFFFFFFFFFFF7DEF4B7B80B247
:102F3000A0FCA0FCE0FCE0FCC0CBC18A45624D6B6C
:102F4000B394F7BD3DDFFFF7FFFFBEF77DEF7DEFE9
:102F50007DE73DDFBAC675A58D7B847A40B3E0EC92
:102F6000E0FDE0FD60F520E5A0D40A6BFBDEFFFF8D
:102F7000FFFFFFFFFFFFFFFFFFFF7DEFCC9340EB65
:102F800060FCA0FCE0FC20FD60FD20F5A0D4C0BBEF
:102F9000429B458B6B9CAE9C718CB394339D34A546
:102FA000F2A4F0B4CA9B049B40BB20E420FDA0FD2A
:102FB000A0FDE0FDE0FDE0FD20C4885A38BEFFFF23
:102FC000FFFFFFFFFFFFFFFFFFFFFFFF78D646ABCE
:102FD00040DB20F460FCA0FCE0FC60FDA0FD60FD97
:102FE00020F5A0DCC0B3C05186290D638F7B0D5B3B
:102FF000C741018200C3C0E360FCA0FCE0FCE0FC30
:1030000060F560F520E5809B8662308479CEFFFF15
:10301000FFFFFFFFFFFFFFFFFFFFFFFFFFFF38C6C0
:103020002D9C059343A382B3C2BBC2BB22B482A32F
:103030004293C37A85620B637184B6B579CE79C643
:10304000B5AD70944A8B06830493049B439B439BCA
:103050004393048308738D73B39479CE7DEFFFFFA0
:10306000FFFFFFFFFFFFFFFFFFFFFFFFFFFFFFFF70
:103070003CDF38BE75B533A533A5F39CF39CF39CB8
:10308000F394F39C35A5F8BDFBDEBEF7FFFFFFFF11
:10309000FFFF7EEFBBD6F8BDB6AD75AD34A5339D51
:1030A000349D35A5B7AD79C63CE7BEF7FFFFFFFFFE
:1030B000FFFFFFFFD4300008000000207403000071
:1030C000D4010008C032000874030020440400004A
:1030D000581D000841321042010413A24A04291469
:1030E000160EF0FFFF0F1A8026091C040E2103E0C4
:1030F000FFFF07286904061618FCFFFF3F2A081F78
:10310000390412C01008080840FCFF1F60120C1A96
:10311000308F180F1013040408F7FF0F04336604F0
:103120008031041D306604C0042AE0041DF0FF074E
:10313000D02513D8103718CCFEFF3FC41AC038185A
:1031400009C0801802C088300C041419C0881431DA
:10315000C08C1411C08E080B1101C086BF03C08043
:10316000FF0140812B30FE741A23401223154008C2
:10317000230414FAFF0F1D1A230C04045E0C1923F8
:103180000C18041790F8FF0F9018330C8019041BCB
:10319000024084295019041B1060843A7CB8190439
:1031A00013608C180F30E00C0330300C0E30180C0C
:1031B0001C30040414C20F0833010EE2062AC004B6
:1031C0005A0108890417E0FFFF0360C009130409CE
:1031D000161C59181A010429441A08045A10041A12
:1031E00018641238041780FF1F1E03C0FFFF07D6A4
:1031F0001904293D326032181A0C135A030419A419
:103200001C800108045E1CFCFFFF3F100928041A03
:10321000FC0432E0824014FE3F8069028BFC1F0CEC
:10322000128023FF7F101208020802F47F0202E9D5
:103230003F28252425E63F05180EF47F04020424C8
:10324000A444A450941004C8100EF27F0405E43F77
:1032500020252125E23F0A14E83F041AF7221744EB
:1032600012242294426A01582B84100299081650A5
:1032700080408040196213FE1F120812041B028056
:103280002CABFF7F801AA0A518161008B8080F09EC
:1032900008090808BF0808091C092C080A78CA117F
:1032A00079012A04023CC87F3F08180BA83F182167
:1032B0000C110B12080A0E460A8A11646000000005
:0400000508000131BD
:00000001FF
